{
  "contractName": "CertificatesContract",
  "abi": [
    {
      "anonymous": false,
      "inputs": [
        {
          "indexed": false,
          "internalType": "uint256",
          "name": "id",
          "type": "uint256"
        },
        {
          "indexed": false,
          "internalType": "bool",
          "name": "valid",
          "type": "bool"
        }
      ],
      "name": "CertificateCanceled",
      "type": "event"
    },
    {
      "anonymous": false,
      "inputs": [
        {
          "indexed": false,
          "internalType": "uint256",
          "name": "id",
          "type": "uint256"
        },
        {
          "indexed": false,
          "internalType": "string",
          "name": "idStudent",
          "type": "string"
        },
        {
          "indexed": false,
          "internalType": "string",
          "name": "encryptedCertificate",
          "type": "string"
        },
        {
          "indexed": false,
          "internalType": "bool",
          "name": "valid",
          "type": "bool"
        },
        {
          "indexed": false,
          "internalType": "uint256",
          "name": "createdAt",
          "type": "uint256"
        }
      ],
      "name": "CertificateRegistered",
      "type": "event"
    },
    {
      "inputs": [
        {
          "internalType": "uint256",
          "name": "",
          "type": "uint256"
        }
      ],
      "name": "certificates",
      "outputs": [
        {
          "internalType": "uint256",
          "name": "id",
          "type": "uint256"
        },
        {
          "internalType": "string",
          "name": "idStudent",
          "type": "string"
        },
        {
          "internalType": "string",
          "name": "encryptedCertificate",
          "type": "string"
        },
        {
          "internalType": "bool",
          "name": "valid",
          "type": "bool"
        },
        {
          "internalType": "uint256",
          "name": "createdAt",
          "type": "uint256"
        }
      ],
      "stateMutability": "view",
      "type": "function"
    },
    {
      "inputs": [],
      "name": "idCertificate",
      "outputs": [
        {
          "internalType": "uint256",
          "name": "",
          "type": "uint256"
        }
      ],
      "stateMutability": "view",
      "type": "function"
    },
    {
      "inputs": [
        {
          "internalType": "string",
          "name": "_idStudent",
          "type": "string"
        },
        {
          "internalType": "string",
          "name": "_certificate",
          "type": "string"
        }
      ],
      "name": "registrateCertificate",
      "outputs": [],
      "stateMutability": "nonpayable",
      "type": "function"
    },
    {
      "inputs": [
        {
          "internalType": "uint256",
          "name": "_id",
          "type": "uint256"
        }
      ],
      "name": "cancelCertificate",
      "outputs": [],
      "stateMutability": "nonpayable",
      "type": "function"
    }
  ],
  "bytecode": "0x60806040526000805534801561001457600080fd5b50610ad2806100246000396000f3fe608060405234801561001057600080fd5b506004361061004c5760003560e01c80630dfdfccd14610051578063663b3e221461006d5780637b9dde47146100a1578063eaf6d6f4146100bd575b600080fd5b61006b60048036038101906100669190610734565b6100db565b005b61008760048036038101906100829190610734565b610327565b6040516100989594939291906107fc565b60405180910390f35b6100bb60048036038101906100b691906106bc565b61047a565b005b6100c561058e565b6040516100d291906107b8565b60405180910390f35b6000600160008381526020019081526020016000206040518060a00160405290816000820154815260200160018201805461011590610927565b80601f016020809104026020016040519081016040528092919081815260200182805461014190610927565b801561018e5780601f106101635761010080835404028352916020019161018e565b820191906000526020600020905b81548152906001019060200180831161017157829003601f168201915b505050505081526020016002820180546101a790610927565b80601f01602080910402602001604051908101604052809291908181526020018280546101d390610927565b80156102205780601f106101f557610100808354040283529160200191610220565b820191906000526020600020905b81548152906001019060200180831161020357829003601f168201915b505050505081526020016003820160009054906101000a900460ff1615151515815260200160048201548152505090506000816060019015159081151581525050806001600084815260200190815260200160002060008201518160000155602082015181600101908051906020019061029b929190610594565b5060408201518160020190805190602001906102b8929190610594565b5060608201518160030160006101000a81548160ff021916908315150217905550608082015181600401559050507f6b3eed7fa53dece47737467c871b5ac5c3feb4d609509fbd20e575f3fc31edf382826060015160405161031b9291906107d3565b60405180910390a15050565b600160205280600052604060002060009150905080600001549080600101805461035090610927565b80601f016020809104026020016040519081016040528092919081815260200182805461037c90610927565b80156103c95780601f1061039e576101008083540402835291602001916103c9565b820191906000526020600020905b8154815290600101906020018083116103ac57829003601f168201915b5050505050908060020180546103de90610927565b80601f016020809104026020016040519081016040528092919081815260200182805461040a90610927565b80156104575780601f1061042c57610100808354040283529160200191610457565b820191906000526020600020905b81548152906001019060200180831161043a57829003601f168201915b5050505050908060030160009054906101000a900460ff16908060040154905085565b60008081548092919061048c9061098a565b919050555060004290506040518060a0016040528060005481526020018481526020018381526020016001151581526020018281525060016000805481526020019081526020016000206000820151816000015560208201518160010190805190602001906104fc929190610594565b506040820151816002019080519060200190610519929190610594565b5060608201518160030160006101000a81548160ff021916908315150217905550608082015181600401559050507f43bddc714edf807a09c5d7ba859e9e168d2a1be80e16e7d0a4e15d561d3d016c60005484846001856040516105819594939291906107fc565b60405180910390a1505050565b60005481565b8280546105a090610927565b90600052602060002090601f0160209004810192826105c25760008555610609565b82601f106105db57805160ff1916838001178555610609565b82800160010185558215610609579182015b828111156106085782518255916020019190600101906105ed565b5b509050610616919061061a565b5090565b5b8082111561063357600081600090555060010161061b565b5090565b600061064a61064584610882565b61085d565b90508281526020810184848401111561066657610665610a65565b5b6106718482856108e5565b509392505050565b600082601f83011261068e5761068d610a60565b5b813561069e848260208601610637565b91505092915050565b6000813590506106b681610a85565b92915050565b600080604083850312156106d3576106d2610a6f565b5b600083013567ffffffffffffffff8111156106f1576106f0610a6a565b5b6106fd85828601610679565b925050602083013567ffffffffffffffff81111561071e5761071d610a6a565b5b61072a85828601610679565b9150509250929050565b60006020828403121561074a57610749610a6f565b5b6000610758848285016106a7565b91505092915050565b61076a816108cf565b82525050565b600061077b826108b3565b61078581856108be565b93506107958185602086016108f4565b61079e81610a74565b840191505092915050565b6107b2816108db565b82525050565b60006020820190506107cd60008301846107a9565b92915050565b60006040820190506107e860008301856107a9565b6107f56020830184610761565b9392505050565b600060a08201905061081160008301886107a9565b81810360208301526108238187610770565b905081810360408301526108378186610770565b90506108466060830185610761565b61085360808301846107a9565b9695505050505050565b6000610867610878565b90506108738282610959565b919050565b6000604051905090565b600067ffffffffffffffff82111561089d5761089c610a31565b5b6108a682610a74565b9050602081019050919050565b600081519050919050565b600082825260208201905092915050565b60008115159050919050565b6000819050919050565b82818337600083830152505050565b60005b838110156109125780820151818401526020810190506108f7565b83811115610921576000848401525b50505050565b6000600282049050600182168061093f57607f821691505b6020821081141561095357610952610a02565b5b50919050565b61096282610a74565b810181811067ffffffffffffffff8211171561098157610980610a31565b5b80604052505050565b6000610995826108db565b91507fffffffffffffffffffffffffffffffffffffffffffffffffffffffffffffffff8214156109c8576109c76109d3565b5b600182019050919050565b7f4e487b7100000000000000000000000000000000000000000000000000000000600052601160045260246000fd5b7f4e487b7100000000000000000000000000000000000000000000000000000000600052602260045260246000fd5b7f4e487b7100000000000000000000000000000000000000000000000000000000600052604160045260246000fd5b600080fd5b600080fd5b600080fd5b600080fd5b6000601f19601f8301169050919050565b610a8e816108db565b8114610a9957600080fd5b5056fea2646970667358221220aaea3928d93b475b7a29acbb76de46d08bd85e014a9f46f275f7e764e3d803d364736f6c63430008060033",
  "immutableReferences": {},
  "source": "// SPDX-License-Identifier: MIT\r\npragma solidity ^0.8.6;\r\n\r\ncontract CertificatesContract {\r\n    uint256 public idCertificate = 0;\r\n\r\n    struct Certificate {\r\n        uint256 id;\r\n        string idStudent;\r\n        string encryptedCertificate;\r\n        bool valid;\r\n        uint256 createdAt;\r\n    }\r\n\r\n    event CertificateRegistered(\r\n        uint256 id,\r\n        string idStudent,\r\n        string encryptedCertificate,\r\n        bool valid,\r\n        uint256 createdAt\r\n    );\r\n\r\n    event CertificateCanceled(uint256 id, bool valid);\r\n\r\n    mapping(uint256 => Certificate) public certificates;\r\n\r\n    function registrateCertificate(\r\n        string memory _idStudent,\r\n        string memory _certificate\r\n    ) public {\r\n        idCertificate++;\r\n\r\n        uint256 createdAt = block.timestamp;\r\n\r\n        certificates[idCertificate] = Certificate(\r\n            idCertificate,\r\n            _idStudent,\r\n            _certificate,\r\n            true,\r\n            createdAt\r\n        );\r\n\r\n        emit CertificateRegistered(\r\n            idCertificate,\r\n            _idStudent,\r\n            _certificate,\r\n            true,\r\n            createdAt\r\n        );\r\n    }\r\n\r\n    function cancelCertificate(uint256 _id) public {\r\n        Certificate memory _certificate = certificates[_id];\r\n        _certificate.valid = false;\r\n        certificates[_id] = _certificate;\r\n        emit CertificateCanceled(_id, _certificate.valid);\r\n    }\r\n}",
  "sourcePath": "C:\\Users\\cesra\\Escritorio\\Tesis2\\thesisproject\\contracts\\CertificatesContract.sol",
  "compiler": {
    "name": "solc",
    "version": "0.8.6+commit.11564f7e.Emscripten.clang"
  },
  "schemaVersion": "3.4.9",
  "updatedAt": "2022-10-24T03:34:55.952Z",
  "devdoc": {
    "kind": "dev",
    "methods": {},
    "version": 1
  },
  "userdoc": {
    "kind": "user",
    "methods": {},
    "version": 1
  }
}